{
  "contractName": "FileStore",
  "abi": [
    {
      "inputs": [
        {
          "internalType": "address",
          "name": "_owner",
          "type": "address"
        }
      ],
      "stateMutability": "nonpayable",
      "type": "constructor"
    },
    {
      "inputs": [
        {
          "internalType": "uint256",
          "name": "",
          "type": "uint256"
        }
      ],
      "name": "fileHash",
      "outputs": [
        {
          "internalType": "bytes",
          "name": "",
          "type": "bytes"
        }
      ],
      "stateMutability": "view",
      "type": "function",
      "constant": true
    },
    {
      "inputs": [
        {
          "internalType": "uint256",
          "name": "_uid",
          "type": "uint256"
        },
        {
          "internalType": "bytes",
          "name": "_fileHash",
          "type": "bytes"
        }
      ],
      "name": "setFileHash",
      "outputs": [],
      "stateMutability": "nonpayable",
      "type": "function"
    }
  ],
  "bytecode": "0x608060405234801561001057600080fd5b506040516107413803806107418339818101604052810190610032919061008d565b806000806101000a81548173ffffffffffffffffffffffffffffffffffffffff021916908373ffffffffffffffffffffffffffffffffffffffff160217905550506100ff565b600081519050610087816100e8565b92915050565b60006020828403121561009f57600080fd5b60006100ad84828501610078565b91505092915050565b60006100c1826100c8565b9050919050565b600073ffffffffffffffffffffffffffffffffffffffff82169050919050565b6100f1816100b6565b81146100fc57600080fd5b50565b6106338061010e6000396000f3fe608060405234801561001057600080fd5b50600436106100365760003560e01c8063373ea7401461003b5780633a2fa2de14610057575b600080fd5b6100556004803603810190610050919061032a565b610087565b005b610071600480360381019061006c9190610301565b610141565b60405161007e91906103da565b60405180910390f35b60008054906101000a900473ffffffffffffffffffffffffffffffffffffffff1673ffffffffffffffffffffffffffffffffffffffff163373ffffffffffffffffffffffffffffffffffffffff1614610115576040517f08c379a000000000000000000000000000000000000000000000000000000000815260040161010c906103fc565b60405180910390fd5b8060016000848152602001908152602001600020908051906020019061013c9291906101e1565b505050565b60016020528060005260406000206000915090508054610160906104eb565b80601f016020809104026020016040519081016040528092919081815260200182805461018c906104eb565b80156101d95780601f106101ae576101008083540402835291602001916101d9565b820191906000526020600020905b8154815290600101906020018083116101bc57829003601f168201915b505050505081565b8280546101ed906104eb565b90600052602060002090601f01602090048101928261020f5760008555610256565b82601f1061022857805160ff1916838001178555610256565b82800160010185558215610256579182015b8281111561025557825182559160200191906001019061023a565b5b5090506102639190610267565b5090565b5b80821115610280576000816000905550600101610268565b5090565b600061029761029284610441565b61041c565b9050828152602081018484840111156102af57600080fd5b6102ba8482856104a9565b509392505050565b600082601f8301126102d357600080fd5b81356102e3848260208601610284565b91505092915050565b6000813590506102fb816105e6565b92915050565b60006020828403121561031357600080fd5b6000610321848285016102ec565b91505092915050565b6000806040838503121561033d57600080fd5b600061034b858286016102ec565b925050602083013567ffffffffffffffff81111561036857600080fd5b610374858286016102c2565b9150509250929050565b600061038982610472565b610393818561047d565b93506103a38185602086016104b8565b6103ac816105ac565b840191505092915050565b60006103c460178361048e565b91506103cf826105bd565b602082019050919050565b600060208201905081810360008301526103f4818461037e565b905092915050565b60006020820190508181036000830152610415816103b7565b9050919050565b6000610426610437565b9050610432828261051d565b919050565b6000604051905090565b600067ffffffffffffffff82111561045c5761045b61057d565b5b610465826105ac565b9050602081019050919050565b600081519050919050565b600082825260208201905092915050565b600082825260208201905092915050565b6000819050919050565b82818337600083830152505050565b60005b838110156104d65780820151818401526020810190506104bb565b838111156104e5576000848401525b50505050565b6000600282049050600182168061050357607f821691505b602082108114156105175761051661054e565b5b50919050565b610526826105ac565b810181811067ffffffffffffffff821117156105455761054461057d565b5b80604052505050565b7f4e487b7100000000000000000000000000000000000000000000000000000000600052602260045260246000fd5b7f4e487b7100000000000000000000000000000000000000000000000000000000600052604160045260246000fd5b6000601f19601f8301169050919050565b7f43616c6c6572206973206e6f7420746865206f776e6572000000000000000000600082015250565b6105ef8161049f565b81146105fa57600080fd5b5056fea2646970667358221220baabd48ea73e762c7a478a7db6242bbadcb68112a279a43ebfc6c918bda7424d64736f6c63430008010033",
  "immutableReferences": {},
  "source": "// SPDX-License-Identifier: MIT\npragma solidity 0.8.1;\n\ncontract FileStore {\n    \n    address owner;\n    \n    constructor(address _owner ) {\n        owner = _owner;\n    }\n    \n    modifier onlyOwner() {\n        require(msg.sender == owner, \"Caller is not the owner\");\n        _;\n    }\n    \n    mapping(uint => bytes) public fileHash;\n    \n    function setFileHash(uint _uid,bytes memory _fileHash) public onlyOwner {\n        fileHash[_uid] = _fileHash;\n    }\n}",
  "sourcePath": "/home/node/lab/IPFS-App/contracts/FileStore.sol",
  "compiler": {
    "name": "solc",
    "version": "0.8.1+commit.df193b15.Emscripten.clang"
  },
  "schemaVersion": "3.4.7",
  "updatedAt": "2022-04-27T16:51:02.111Z",
  "networkType": "ethereum",
  "devdoc": {
    "kind": "dev",
    "methods": {},
    "version": 1
  },
  "userdoc": {
    "kind": "user",
    "methods": {},
    "version": 1
  }
}